{
  "contractName": "Federation",
  "abi": [
    {
      "constant": true,
      "inputs": [
        {
          "name": "",
          "type": "bytes32"
        }
      ],
      "name": "service",
      "outputs": [
        {
          "name": "creator",
          "type": "address"
        },
        {
          "name": "endpoint_consumer",
          "type": "bytes32"
        },
        {
          "name": "id",
          "type": "bytes32"
        },
        {
          "name": "provider",
          "type": "address"
        },
        {
          "name": "endpoint_provider",
          "type": "bytes32"
        },
        {
          "name": "req_info",
          "type": "bytes"
        },
        {
          "name": "state",
          "type": "uint8"
        }
      ],
      "payable": false,
      "stateMutability": "view",
      "type": "function"
    },
    {
      "constant": true,
      "inputs": [
        {
          "name": "",
          "type": "bytes32"
        }
      ],
      "name": "bidCount",
      "outputs": [
        {
          "name": "",
          "type": "uint256"
        }
      ],
      "payable": false,
      "stateMutability": "view",
      "type": "function"
    },
    {
      "constant": true,
      "inputs": [
        {
          "name": "",
          "type": "address"
        }
      ],
      "name": "operator",
      "outputs": [
        {
          "name": "name",
          "type": "bytes32"
        },
        {
          "name": "registered",
          "type": "bool"
        }
      ],
      "payable": false,
      "stateMutability": "view",
      "type": "function"
    },
    {
      "constant": true,
      "inputs": [
        {
          "name": "",
          "type": "bytes32"
        }
      ],
      "name": "endpoints",
      "outputs": [
        {
          "name": "service_catalog_db",
          "type": "bytes32"
        },
        {
          "name": "topology_db",
          "type": "bytes32"
        },
        {
          "name": "nsd_id",
          "type": "bytes32"
        },
        {
          "name": "ns_id",
          "type": "bytes32"
        }
      ],
      "payable": false,
      "stateMutability": "view",
      "type": "function"
    },
    {
      "constant": true,
      "inputs": [
        {
          "name": "",
          "type": "bytes32"
        },
        {
          "name": "",
          "type": "uint256"
        }
      ],
      "name": "bids",
      "outputs": [
        {
          "name": "bid_address",
          "type": "address"
        },
        {
          "name": "price",
          "type": "uint256"
        },
        {
          "name": "endpoint_provider",
          "type": "bytes32"
        }
      ],
      "payable": false,
      "stateMutability": "view",
      "type": "function"
    },
    {
      "anonymous": false,
      "inputs": [
        {
          "indexed": false,
          "name": "operator",
          "type": "address"
        },
        {
          "indexed": false,
          "name": "name",
          "type": "bytes32"
        }
      ],
      "name": "OperatorRegistered",
      "type": "event"
    },
    {
      "anonymous": false,
      "inputs": [
        {
          "indexed": false,
          "name": "operator",
          "type": "address"
        }
      ],
      "name": "OperatorRemoved",
      "type": "event"
    },
    {
      "anonymous": false,
      "inputs": [
        {
          "indexed": false,
          "name": "requirements",
          "type": "bytes"
        },
        {
          "indexed": false,
          "name": "id",
          "type": "bytes32"
        }
      ],
      "name": "ServiceAnnouncement",
      "type": "event"
    },
    {
      "anonymous": false,
      "inputs": [
        {
          "indexed": false,
          "name": "_id",
          "type": "bytes32"
        },
        {
          "indexed": false,
          "name": "max_bid_index",
          "type": "uint256"
        }
      ],
      "name": "NewBid",
      "type": "event"
    },
    {
      "anonymous": false,
      "inputs": [
        {
          "indexed": false,
          "name": "_id",
          "type": "bytes32"
        }
      ],
      "name": "ServiceAnnouncementClosed",
      "type": "event"
    },
    {
      "anonymous": false,
      "inputs": [
        {
          "indexed": false,
          "name": "_id",
          "type": "bytes32"
        }
      ],
      "name": "ServiceDeployedEvent",
      "type": "event"
    },
    {
      "constant": false,
      "inputs": [
        {
          "name": "name",
          "type": "bytes32"
        }
      ],
      "name": "addOperator",
      "outputs": [],
      "payable": false,
      "stateMutability": "nonpayable",
      "type": "function"
    },
    {
      "constant": false,
      "inputs": [],
      "name": "removeOperator",
      "outputs": [],
      "payable": false,
      "stateMutability": "nonpayable",
      "type": "function"
    },
    {
      "constant": true,
      "inputs": [
        {
          "name": "op_address",
          "type": "address"
        }
      ],
      "name": "getOperatorInfo",
      "outputs": [
        {
          "name": "name",
          "type": "bytes32"
        }
      ],
      "payable": false,
      "stateMutability": "view",
      "type": "function"
    },
    {
      "constant": false,
      "inputs": [
        {
          "name": "_requirements",
          "type": "bytes"
        },
        {
          "name": "_id",
          "type": "bytes32"
        },
        {
          "name": "endpoint_service_catalog_db",
          "type": "bytes32"
        },
        {
          "name": "endpoint_topology_db",
          "type": "bytes32"
        },
        {
          "name": "endpoint_nsd_id",
          "type": "bytes32"
        },
        {
          "name": "endpoint_ns_id",
          "type": "bytes32"
        }
      ],
      "name": "AnnounceService",
      "outputs": [
        {
          "name": "",
          "type": "uint8"
        }
      ],
      "payable": false,
      "stateMutability": "nonpayable",
      "type": "function"
    },
    {
      "constant": false,
      "inputs": [
        {
          "name": "provider",
          "type": "bool"
        },
        {
          "name": "_id",
          "type": "bytes32"
        },
        {
          "name": "endpoint_service_catalog_db",
          "type": "bytes32"
        },
        {
          "name": "endpoint_topology_db",
          "type": "bytes32"
        },
        {
          "name": "endpoint_nsd_id",
          "type": "bytes32"
        },
        {
          "name": "endpoint_ns_id",
          "type": "bytes32"
        }
      ],
      "name": "UpdateEndpoint",
      "outputs": [
        {
          "name": "",
          "type": "bool"
        }
      ],
      "payable": false,
      "stateMutability": "nonpayable",
      "type": "function"
    },
    {
      "constant": true,
      "inputs": [
        {
          "name": "_id",
          "type": "bytes32"
        }
      ],
      "name": "GetServiceState",
      "outputs": [
        {
          "name": "",
          "type": "uint8"
        }
      ],
      "payable": false,
      "stateMutability": "view",
      "type": "function"
    },
    {
      "constant": true,
      "inputs": [
        {
          "name": "_id",
          "type": "bytes32"
        },
        {
          "name": "provider",
          "type": "bool"
        },
        {
          "name": "call_address",
          "type": "address"
        }
      ],
      "name": "GetServiceInfo",
      "outputs": [
        {
          "name": "",
          "type": "bytes32"
        },
        {
          "name": "",
          "type": "bytes"
        },
        {
          "name": "",
          "type": "bytes32"
        },
        {
          "name": "",
          "type": "bytes32"
        },
        {
          "name": "",
          "type": "bytes32"
        },
        {
          "name": "",
          "type": "bytes32"
        }
      ],
      "payable": false,
      "stateMutability": "view",
      "type": "function"
    },
    {
      "constant": true,
      "inputs": [
        {
          "name": "endpoint_id",
          "type": "bytes32"
        },
        {
          "name": "call_address",
          "type": "address"
        }
      ],
      "name": "GetEndpoint",
      "outputs": [
        {
          "name": "",
          "type": "bytes32"
        },
        {
          "name": "",
          "type": "bytes32"
        },
        {
          "name": "",
          "type": "bytes32"
        },
        {
          "name": "",
          "type": "bytes32"
        }
      ],
      "payable": false,
      "stateMutability": "view",
      "type": "function"
    },
    {
      "constant": false,
      "inputs": [
        {
          "name": "_id",
          "type": "bytes32"
        },
        {
          "name": "_price",
          "type": "uint32"
        },
        {
          "name": "endpoint_service_catalog_db",
          "type": "bytes32"
        },
        {
          "name": "endpoint_topology_db",
          "type": "bytes32"
        },
        {
          "name": "endpoint_nsd_id",
          "type": "bytes32"
        },
        {
          "name": "endpoint_ns_id",
          "type": "bytes32"
        }
      ],
      "name": "PlaceBid",
      "outputs": [
        {
          "name": "",
          "type": "uint256"
        }
      ],
      "payable": false,
      "stateMutability": "nonpayable",
      "type": "function"
    },
    {
      "constant": true,
      "inputs": [
        {
          "name": "_id",
          "type": "bytes32"
        },
        {
          "name": "_creator",
          "type": "address"
        }
      ],
      "name": "GetBidCount",
      "outputs": [
        {
          "name": "",
          "type": "uint256"
        }
      ],
      "payable": false,
      "stateMutability": "view",
      "type": "function"
    },
    {
      "constant": true,
      "inputs": [
        {
          "name": "_id",
          "type": "bytes32"
        },
        {
          "name": "bider_index",
          "type": "uint256"
        },
        {
          "name": "_creator",
          "type": "address"
        }
      ],
      "name": "GetBid",
      "outputs": [
        {
          "name": "",
          "type": "address"
        },
        {
          "name": "",
          "type": "uint256"
        },
        {
          "name": "",
          "type": "uint256"
        }
      ],
      "payable": false,
      "stateMutability": "view",
      "type": "function"
    },
    {
      "constant": false,
      "inputs": [
        {
          "name": "_id",
          "type": "bytes32"
        },
        {
          "name": "bider_index",
          "type": "uint256"
        }
      ],
      "name": "ChooseProvider",
      "outputs": [
        {
          "name": "",
          "type": "bool"
        }
      ],
      "payable": false,
      "stateMutability": "nonpayable",
      "type": "function"
    },
    {
      "constant": true,
      "inputs": [
        {
          "name": "_id",
          "type": "bytes32"
        },
        {
          "name": "_winner",
          "type": "address"
        }
      ],
      "name": "isWinner",
      "outputs": [
        {
          "name": "",
          "type": "bool"
        }
      ],
      "payable": false,
      "stateMutability": "view",
      "type": "function"
    },
    {
      "constant": false,
      "inputs": [
        {
          "name": "info",
          "type": "bytes"
        },
        {
          "name": "_id",
          "type": "bytes32"
        }
      ],
      "name": "ServiceDeployed",
      "outputs": [
        {
          "name": "",
          "type": "bool"
        }
      ],
      "payable": false,
      "stateMutability": "nonpayable",
      "type": "function"
    }
  ],
  "bytecode": "0x608060405234801561001057600080fd5b50613525806100206000396000f3fe608060405260043610610107576000357c0100000000000000000000000000000000000000000000000000000000900463ffffffff16806302b34f1f1461010c57806317d42ff71461014f57806320e545481461018f57806327d9ab5d146101a65780633ae10dce146101e35780634dbf91731461022057806357c91f5f1461025d5780635fc9bd921461029a5780636f78c7cd146102d95780638610372c146103025780639a3073911461033f5780639c382a561461037d5780639cc19f5b146103ba5780639f01cf60146103f7578063a255916b14610434578063a883ad8014610471578063ab6ad3e7146104b1578063ce646b13146104ee578063f7e65b1c14610530575b600080fd5b34801561011857600080fd5b50610133600480360361012e9190810190612557565b61056f565b6040516101469796959493929190612e78565b60405180910390f35b34801561015b57600080fd5b5061017660048036036101719190810190612580565b610696565b6040516101869493929190612fbb565b60405180910390f35b34801561019b57600080fd5b506101a4610777565b005b3480156101b257600080fd5b506101cd60048036036101c891908101906124a5565b6108ac565b6040516101da9190612f77565b60405180910390f35b3480156101ef57600080fd5b5061020a6004803603610205919081019061260b565b610957565b6040516102179190612f5c565b60405180910390f35b34801561022c57600080fd5b50610247600480360361024291908101906124ce565b610c05565b6040516102549190612f5c565b60405180910390f35b34801561026957600080fd5b50610284600480360361027f9190810190612580565b611020565b604051610291919061331c565b60405180910390f35b3480156102a657600080fd5b506102c160048036036102bc9190810190612647565b611130565b6040516102d093929190612f25565b60405180910390f35b3480156102e557600080fd5b5061030060048036036102fb9190810190612557565b61130b565b005b34801561030e57600080fd5b5061032960048036036103249190810190612557565b611454565b604051610336919061331c565b60405180910390f35b34801561034b57600080fd5b50610366600480360361036191908101906124a5565b61146c565b604051610374929190612f92565b60405180910390f35b34801561038957600080fd5b506103a4600480360361039f919081019061271f565b61149d565b6040516103b19190612f5c565b60405180910390f35b3480156103c657600080fd5b506103e160048036036103dc9190810190612580565b61167e565b6040516103ee9190612f5c565b60405180910390f35b34801561040357600080fd5b5061041e60048036036104199190810190612773565b611770565b60405161042b91906130c1565b60405180910390f35b34801561044057600080fd5b5061045b60048036036104569190810190612557565b611acf565b60405161046891906130c1565b60405180910390f35b34801561047d57600080fd5b5061049860048036036104939190810190612557565b611afc565b6040516104a89493929190612fbb565b60405180910390f35b3480156104bd57600080fd5b506104d860048036036104d39190810190612696565b611b2c565b6040516104e5919061331c565b60405180910390f35b3480156104fa57600080fd5b50610515600480360361051091908101906125bc565b611e28565b60405161052796959493929190613000565b60405180910390f35b34801561053c57600080fd5b506105576004803603610552919081019061260b565b612260565b60405161056693929190612eee565b60405180910390f35b60026020528060005260406000206000915090508060000160009054906101000a900473ffffffffffffffffffffffffffffffffffffffff16908060010154908060020154908060030160009054906101000a900473ffffffffffffffffffffffffffffffffffffffff1690806004015490806005018054600181600116156101000203166002900480601f0160208091040260200160405190810160405280929190818152602001828054600181600116156101000203166002900480156106795780601f1061064e57610100808354040283529160200191610679565b820191906000526020600020905b81548152906001019060200180831161065c57829003601f168201915b5050505050908060060160009054906101000a900460ff16905087565b6000806000806000600360008773ffffffffffffffffffffffffffffffffffffffff1673ffffffffffffffffffffffffffffffffffffffff16815260200190815260200160002090506000600460008981526020019081526020016000209050600115158260010160009054906101000a900460ff161515141515610750576040517f08c379a00000000000000000000000000000000000000000000000000000000081526004016107479061329c565b60405180910390fd5b80600001548160010154826002015483600301549550955095509550505092959194509250565b6000600360003373ffffffffffffffffffffffffffffffffffffffff1673ffffffffffffffffffffffffffffffffffffffff1681526020019081526020016000209050600115158160010160009054906101000a900460ff161515141515610814576040517f08c379a000000000000000000000000000000000000000000000000000000000815260040161080b9061317c565b60405180910390fd5b600360003373ffffffffffffffffffffffffffffffffffffffff1673ffffffffffffffffffffffffffffffffffffffff1681526020019081526020016000206000808201600090556001820160006101000a81549060ff021916905550507f80c0b871b97b595b16a7741c1b06fed0c6f6f558639f18ccbce50724325dc40d336040516108a19190612e34565b60405180910390a150565b600080600360008473ffffffffffffffffffffffffffffffffffffffff1673ffffffffffffffffffffffffffffffffffffffff1681526020019081526020016000209050600115158160010160009054906101000a900460ff16151514151561094a576040517f08c379a00000000000000000000000000000000000000000000000000000000081526004016109419061323c565b60405180910390fd5b8060000154915050919050565b60008060026000858152602001908152602001600020905060006001600086815260200190815260200160002090508482600201541415156109ce576040517f08c379a00000000000000000000000000000000000000000000000000000000081526004016109c5906130dc565b60405180910390fd5b3373ffffffffffffffffffffffffffffffffffffffff168260000160009054906101000a900473ffffffffffffffffffffffffffffffffffffffff1673ffffffffffffffffffffffffffffffffffffffff16141515610a62576040517f08c379a0000000000000000000000000000000000000000000000000000000008152600401610a59906131dc565b60405180910390fd5b60006002811115610a6f57fe5b8260060160009054906101000a900460ff166002811115610a8c57fe5b141515610ace576040517f08c379a0000000000000000000000000000000000000000000000000000000008152600401610ac59061319c565b60405180910390fd5b60018260060160006101000a81548160ff02191690836002811115610aef57fe5b02179055508084815481101515610b0257fe5b906000526020600020906003020160000160009054906101000a900473ffffffffffffffffffffffffffffffffffffffff166002600087815260200190815260200160002060030160006101000a81548173ffffffffffffffffffffffffffffffffffffffff021916908373ffffffffffffffffffffffffffffffffffffffff1602179055508084815481101515610b9657fe5b90600052602060002090600302016002015460026000878152602001908152602001600020600401819055507f0fa967e5a697cd5b1a32e3ed8e2a5b983caf2ae1bb54e8fe37fae071347e8fea85604051610bf19190612f77565b60405180910390a160019250505092915050565b600080600360003373ffffffffffffffffffffffffffffffffffffffff1673ffffffffffffffffffffffffffffffffffffffff1681526020019081526020016000209050600060026000898152602001908152602001600020905060008787878760405160200180858152602001848152602001838152602001828152602001945050505050604051602081830303815290604052805190602001209050600115158360010160009054906101000a900460ff161515141515610cfd576040517f08c379a0000000000000000000000000000000000000000000000000000000008152600401610cf49061329c565b60405180910390fd5b60006002811115610d0a57fe5b8260060160009054906101000a900460ff166002811115610d2757fe5b10151515610d6a576040517f08c379a0000000000000000000000000000000000000000000000000000000008152600401610d619061325c565b60405180910390fd5b600115158a15151415610eff5760016002811115610d8457fe5b8260060160009054906101000a900460ff166002811115610da157fe5b10151515610de4576040517f08c379a0000000000000000000000000000000000000000000000000000000008152600401610ddb906132bc565b60405180910390fd5b3373ffffffffffffffffffffffffffffffffffffffff168260030160009054906101000a900473ffffffffffffffffffffffffffffffffffffffff1673ffffffffffffffffffffffffffffffffffffffff16141515610e78576040517f08c379a0000000000000000000000000000000000000000000000000000000008152600401610e6f906131fc565b60405180910390fd5b60806040519081016040528089815260200188815260200187815260200186815250600460008381526020019081526020016000206000820151816000015560208201518160010155604082015181600201556060820151816003015590505080600260008b81526020019081526020016000206004018190555060019350505050611016565b3373ffffffffffffffffffffffffffffffffffffffff168260000160009054906101000a900473ffffffffffffffffffffffffffffffffffffffff1673ffffffffffffffffffffffffffffffffffffffff16141515610f93576040517f08c379a0000000000000000000000000000000000000000000000000000000008152600401610f8a9061321c565b60405180910390fd5b60806040519081016040528089815260200188815260200187815260200186815250600460008381526020019081526020016000206000820151816000015560208201518160010155604082015181600201556060820151816003015590505080600260008b815260200190815260200160002060010181905550600193505050505b9695505050505050565b600080600260008581526020019081526020016000209050838160020154141515611080576040517f08c379a0000000000000000000000000000000000000000000000000000000008152600401611077906130dc565b60405180910390fd5b8273ffffffffffffffffffffffffffffffffffffffff168160000160009054906101000a900473ffffffffffffffffffffffffffffffffffffffff1673ffffffffffffffffffffffffffffffffffffffff16141515611114576040517f08c379a000000000000000000000000000000000000000000000000000000000815260040161110b906132fc565b60405180910390fd5b6000808581526020019081526020016000205491505092915050565b60008060008060026000888152602001908152602001600020905060006001600089815260200190815260200160002090508782600201541415156111aa576040517f08c379a00000000000000000000000000000000000000000000000000000000081526004016111a1906130dc565b60405180910390fd5b8573ffffffffffffffffffffffffffffffffffffffff168260000160009054906101000a900473ffffffffffffffffffffffffffffffffffffffff1673ffffffffffffffffffffffffffffffffffffffff1614151561123e576040517f08c379a0000000000000000000000000000000000000000000000000000000008152600401611235906132fc565b60405180910390fd5b6000600160008a815260200190815260200160002080549050111515611299576040517f08c379a0000000000000000000000000000000000000000000000000000000008152600401611290906130fc565b60405180910390fd5b80878154811015156112a757fe5b906000526020600020906003020160000160009054906101000a900473ffffffffffffffffffffffffffffffffffffffff1681888154811015156112e757fe5b90600052602060002090600302016001015488945094509450505093509350939050565b6000600360003373ffffffffffffffffffffffffffffffffffffffff1673ffffffffffffffffffffffffffffffffffffffff16815260200190815260200160002090506000602060ff16111515611397576040517f08c379a000000000000000000000000000000000000000000000000000000000815260040161138e9061315c565b60405180910390fd5b600015158160010160009054906101000a900460ff1615151415156113f1576040517f08c379a00000000000000000000000000000000000000000000000000000000081526004016113e8906132dc565b60405180910390fd5b81816000018190555060018160010160006101000a81548160ff0219169083151502179055507fe8e68cef1c3a761ed7be7e8463a375f27f7bc335e51824223cacce636ec5c3fe3383604051611448929190612e4f565b60405180910390a15050565b60006020528060005260406000206000915090505481565b60036020528060005260406000206000915090508060000154908060010160009054906101000a900460ff16905082565b6000806002600084815260200190815260200160002090508281600201541415156114fd576040517f08c379a00000000000000000000000000000000000000000000000000000000081526004016114f4906130dc565b60405180910390fd5b3373ffffffffffffffffffffffffffffffffffffffff168160030160009054906101000a900473ffffffffffffffffffffffffffffffffffffffff1673ffffffffffffffffffffffffffffffffffffffff16141515611591576040517f08c379a0000000000000000000000000000000000000000000000000000000008152600401611588906131bc565b60405180910390fd5b6001600281111561159e57fe5b8160060160009054906101000a900460ff1660028111156115bb57fe5b1415156115fd576040517f08c379a00000000000000000000000000000000000000000000000000000000081526004016115f49061311c565b60405180910390fd5b60028160060160006101000a81548160ff0219169083600281111561161e57fe5b02179055508381600501908051906020019061163b9291906122c6565b507f5cfc0037f79529279d288edea103e1e1d3f2a2b727bdf8113017043ea939488b8360405161166b9190612f77565b60405180910390a1600191505092915050565b600080600260008581526020019081526020016000209050600160028111156116a357fe5b8160060160009054906101000a900460ff1660028111156116c057fe5b141515611702576040517f08c379a00000000000000000000000000000000000000000000000000000000081526004016116f99061311c565b60405180910390fd5b8273ffffffffffffffffffffffffffffffffffffffff168160030160009054906101000a900473ffffffffffffffffffffffffffffffffffffffff1673ffffffffffffffffffffffffffffffffffffffff16141561176457600191505061176a565b60009150505b92915050565b600080600360003373ffffffffffffffffffffffffffffffffffffffff1673ffffffffffffffffffffffffffffffffffffffff16815260200190815260200160002090506000600260008981526020019081526020016000209050600115158260010160009054906101000a900460ff161515141515611825576040517f08c379a000000000000000000000000000000000000000000000000000000000815260040161181c9061313c565b60405180910390fd5b8781600201541415151561186e576040517f08c379a00000000000000000000000000000000000000000000000000000000081526004016118659061327c565b60405180910390fd5b6000878787876040516020018085815260200184815260200183815260200182815260200194505050505060405160208183030381529060405280519060200120905060806040519081016040528089815260200188815260200187815260200186815250600460008381526020019081526020016000206000820151816000015560208201518160010155604082015181600201556060820151816003015590505060e0604051908101604052803373ffffffffffffffffffffffffffffffffffffffff1681526020018281526020018a81526020013373ffffffffffffffffffffffffffffffffffffffff1681526020018281526020018b81526020016000600281111561197a57fe5b815250600260008b815260200190815260200160002060008201518160000160006101000a81548173ffffffffffffffffffffffffffffffffffffffff021916908373ffffffffffffffffffffffffffffffffffffffff160217905550602082015181600101556040820151816002015560608201518160030160006101000a81548173ffffffffffffffffffffffffffffffffffffffff021916908373ffffffffffffffffffffffffffffffffffffffff1602179055506080820151816004015560a0820151816005019080519060200190611a58929190612346565b5060c08201518160060160006101000a81548160ff02191690836002811115611a7d57fe5b02179055509050507fb7695f814983e3ba2a7424e9ff82b3cb1d03499243a8042cd59d0d650edf22e58a8a604051611ab6929190613091565b60405180910390a1600093505050509695505050505050565b60006002600083815260200190815260200160002060060160009054906101000a900460ff169050919050565b60046020528060005260406000206000915090508060000154908060010154908060020154908060030154905084565b600080600360003373ffffffffffffffffffffffffffffffffffffffff1673ffffffffffffffffffffffffffffffffffffffff16815260200190815260200160002090506000600260008a81526020019081526020016000209050600115158260010160009054906101000a900460ff161515141515611be1576040517f08c379a0000000000000000000000000000000000000000000000000000000008152600401611bd89061313c565b60405180910390fd5b60006002811115611bee57fe5b8160060160009054906101000a900460ff166002811115611c0b57fe5b141515611c4d576040517f08c379a0000000000000000000000000000000000000000000000000000000008152600401611c449061325c565b60405180910390fd5b600087878787604051602001808581526020018481526020018381526020018281526020019450505050506040516020818303038152906040528051906020012090506080604051908101604052808981526020018881526020018781526020018681525060046000838152602001908152602001600020600082015181600001556020820151816001015560408201518160020155606082015181600301559050506000600160008c81526020019081526020016000206060604051908101604052803373ffffffffffffffffffffffffffffffffffffffff1681526020018c63ffffffff168152602001848152509080600181540180825580915050906001820390600052602060002090600302016000909192909190915060008201518160000160006101000a81548173ffffffffffffffffffffffffffffffffffffffff021916908373ffffffffffffffffffffffffffffffffffffffff160217905550602082015181600101556040820151816002015550509050806000808d8152602001908152602001600020819055507fdb578ec7204282ed3ffcec84ef9d2ca9adda7fb0c0b707010bad5cce9f18f41f8b82604051611e0f929190613068565b60405180910390a1809450505050509695505050505050565b600060606000806000806000600360008973ffffffffffffffffffffffffffffffffffffffff1673ffffffffffffffffffffffffffffffffffffffff16815260200190815260200160002090506000600260008c81526020019081526020016000209050600115158260010160009054906101000a900460ff161515141515611ee6576040517f08c379a0000000000000000000000000000000000000000000000000000000008152600401611edd9061329c565b60405180910390fd5b60016002811115611ef357fe5b8160060160009054906101000a900460ff166002811115611f1057fe5b10151515611f53576040517f08c379a0000000000000000000000000000000000000000000000000000000008152600401611f4a906132bc565b60405180910390fd5b600115158a151514156120dc578873ffffffffffffffffffffffffffffffffffffffff168160030160009054906101000a900473ffffffffffffffffffffffffffffffffffffffff1673ffffffffffffffffffffffffffffffffffffffff16141515611ff4576040517f08c379a0000000000000000000000000000000000000000000000000000000008152600401611feb906131fc565b60405180910390fd5b6000600460008360010154815260200190815260200160002090508160020154826005018260000154836001015484600201548560030154848054600181600116156101000203166002900480601f0160208091040260200160405190810160405280929190818152602001828054600181600116156101000203166002900480156120c15780601f10612096576101008083540402835291602001916120c1565b820191906000526020600020905b8154815290600101906020018083116120a457829003601f168201915b50505050509450985098509850985098509850505050612254565b8873ffffffffffffffffffffffffffffffffffffffff168160000160009054906101000a900473ffffffffffffffffffffffffffffffffffffffff1673ffffffffffffffffffffffffffffffffffffffff16141515612170576040517f08c379a00000000000000000000000000000000000000000000000000000000081526004016121679061321c565b60405180910390fd5b6000600460008360040154815260200190815260200160002090508160020154826005018260000154836001015484600201548560030154848054600181600116156101000203166002900480601f01602080910402602001604051908101604052809291908181526020018280546001816001161561010002031660029004801561223d5780601f106122125761010080835404028352916020019161223d565b820191906000526020600020905b81548152906001019060200180831161222057829003601f168201915b505050505094509850985098509850985098505050505b93975093979195509350565b60016020528160005260406000208181548110151561227b57fe5b9060005260206000209060030201600091509150508060000160009054906101000a900473ffffffffffffffffffffffffffffffffffffffff16908060010154908060020154905083565b828054600181600116156101000203166002900490600052602060002090601f016020900481019282601f1061230757805160ff1916838001178555612335565b82800160010185558215612335579182015b82811115612334578251825591602001919060010190612319565b5b50905061234291906123c6565b5090565b828054600181600116156101000203166002900490600052602060002090601f016020900481019282601f1061238757805160ff19168380011785556123b5565b828001600101855582156123b5579182015b828111156123b4578251825591602001919060010190612399565b5b5090506123c291906123c6565b5090565b6123e891905b808211156123e45760008160009055506001016123cc565b5090565b90565b60006123f7823561340e565b905092915050565b600061240b8235613420565b905092915050565b600061241f823561342c565b905092915050565b600082601f830112151561243a57600080fd5b813561244d61244882613364565b613337565b9150808252602083016020830185838301111561246957600080fd5b612474838284613498565b50505092915050565b60006124898235613436565b905092915050565b600061249d8235613440565b905092915050565b6000602082840312156124b757600080fd5b60006124c5848285016123eb565b91505092915050565b60008060008060008060c087890312156124e757600080fd5b60006124f589828a016123ff565b965050602061250689828a01612413565b955050604061251789828a01612413565b945050606061252889828a01612413565b935050608061253989828a01612413565b92505060a061254a89828a01612413565b9150509295509295509295565b60006020828403121561256957600080fd5b600061257784828501612413565b91505092915050565b6000806040838503121561259357600080fd5b60006125a185828601612413565b92505060206125b2858286016123eb565b9150509250929050565b6000806000606084860312156125d157600080fd5b60006125df86828701612413565b93505060206125f0868287016123ff565b9250506040612601868287016123eb565b9150509250925092565b6000806040838503121561261e57600080fd5b600061262c85828601612413565b925050602061263d8582860161247d565b9150509250929050565b60008060006060848603121561265c57600080fd5b600061266a86828701612413565b935050602061267b8682870161247d565b925050604061268c868287016123eb565b9150509250925092565b60008060008060008060c087890312156126af57600080fd5b60006126bd89828a01612413565b96505060206126ce89828a01612491565b95505060406126df89828a01612413565b94505060606126f089828a01612413565b935050608061270189828a01612413565b92505060a061271289828a01612413565b9150509295509295509295565b6000806040838503121561273257600080fd5b600083013567ffffffffffffffff81111561274c57600080fd5b61275885828601612427565b925050602061276985828601612413565b9150509250929050565b60008060008060008060c0878903121561278c57600080fd5b600087013567ffffffffffffffff8111156127a657600080fd5b6127b289828a01612427565b96505060206127c389828a01612413565b95505060406127d489828a01612413565b94505060606127e589828a01612413565b93505060806127f689828a01612413565b92505060a061280789828a01612413565b9150509295509295509295565b61281d81613450565b82525050565b61282c816133a6565b82525050565b61283b816133b8565b82525050565b61284a816133c4565b82525050565b600061285b8261339b565b80845261286f8160208601602086016134a7565b612878816134da565b602085010191505092915050565b600061289182613390565b8084526128a58160208601602086016134a7565b6128ae816134da565b602085010191505092915050565b6128c581613462565b82525050565b6000601282527f53657276696365206e6f742065786973747300000000000000000000000000006020830152604082019050919050565b6000601d82527f4e6f206269647320666f722072657175657374656420536572766963650000006020830152604082019050919050565b6000603582527f536572766963652077696e6e6572206e6f742063686f6f73656e2e205365727660208301527f6963653a204445504c4f594544206f72204f50454e00000000000000000000006040830152606082019050919050565b6000603982527f4f70657261746f72206973206e6f7420726567697374657265642e2043616e2060208301527f6e6f74206269642e20506c656173652072656769737465722e000000000000006040830152606082019050919050565b6000601182527f4e616d65206973206e6f742076616c69640000000000000000000000000000006020830152604082019050919050565b6000601a82527f4f70657261746f72206973206e6f7420726567697374657265640000000000006020830152604082019050919050565b6000602382527f5365727669636520616e6e6f756e63656d656e7420616c726561647920636c6f60208301527f73656400000000000000000000000000000000000000000000000000000000006040830152606082019050919050565b6000602c82527f4f6e6c7920736572766963652070726f76696465722063616e206465706c6f7960208301527f20746865207365727669636500000000000000000000000000000000000000006040830152606082019050919050565b6000602f82527f4f6e6c7920736572766963652063726561746f722063616e20636c6f7365207460208301527f686520616e6e6f756e63656d656e7400000000000000000000000000000000006040830152606082019050919050565b6000601b82527f5468697320646f6d61696e206973206e6f7420612077696e6e657200000000006020830152604082019050919050565b6000601c82527f5468697320646f6d61696e206973206e6f7420612063726561746f72000000006020830152604082019050919050565b6000603e82527f4f70657261746f72206973206e6f74207265676973746572656420776974682060208301527f7468697320616464726573732e20506c656173652072656769737465722e00006040830152606082019050919050565b6000601f82527f5365727669636520697320636c6f736564206f72206e6f7420657869737473006020830152604082019050919050565b6000602682527f5365727669636520494420666f72206f70657261746f7220616c72656164792060208301527f65786973747300000000000000000000000000000000000000000000000000006040830152606082019050919050565b6000603f82527f4f70657261746f72206973206e6f7420726567697374657265642e2043616e2060208301527f6e6f74206c6f6f6b20696e746f2e20506c656173652072656769737465722e006040830152606082019050919050565b6000602382527f53657276696365206973207374696c6c206f70656e206f72206e6f742065786960208301527f73747300000000000000000000000000000000000000000000000000000000006040830152606082019050919050565b6000601b82527f4f70657261746f7220616c7265616479207265676973746572656400000000006020830152604082019050919050565b6000603282527f4f6e6c7920736572766963652063726561746f722063616e206c6f6f6b20696e60208301527f746f2074686520696e666f726d6174696f6e00000000000000000000000000006040830152606082019050919050565b612e2e81613404565b82525050565b6000602082019050612e496000830184612814565b92915050565b6000604082019050612e646000830185612814565b612e716020830184612841565b9392505050565b600060e082019050612e8d600083018a612823565b612e9a6020830189612841565b612ea76040830188612841565b612eb46060830187612823565b612ec16080830186612841565b81810360a0830152612ed38185612886565b9050612ee260c08301846128bc565b98975050505050505050565b6000606082019050612f036000830186612823565b612f106020830185612e25565b612f1d6040830184612841565b949350505050565b6000606082019050612f3a6000830186612823565b612f476020830185612e25565b612f546040830184612e25565b949350505050565b6000602082019050612f716000830184612832565b92915050565b6000602082019050612f8c6000830184612841565b92915050565b6000604082019050612fa76000830185612841565b612fb46020830184612832565b9392505050565b6000608082019050612fd06000830187612841565b612fdd6020830186612841565b612fea6040830185612841565b612ff76060830184612841565b95945050505050565b600060c0820190506130156000830189612841565b81810360208301526130278188612850565b90506130366040830187612841565b6130436060830186612841565b6130506080830185612841565b61305d60a0830184612841565b979650505050505050565b600060408201905061307d6000830185612841565b61308a6020830184612e25565b9392505050565b600060408201905081810360008301526130ab8185612850565b90506130ba6020830184612841565b9392505050565b60006020820190506130d660008301846128bc565b92915050565b600060208201905081810360008301526130f5816128cb565b9050919050565b6000602082019050818103600083015261311581612902565b9050919050565b6000602082019050818103600083015261313581612939565b9050919050565b6000602082019050818103600083015261315581612996565b9050919050565b60006020820190508181036000830152613175816129f3565b9050919050565b6000602082019050818103600083015261319581612a2a565b9050919050565b600060208201905081810360008301526131b581612a61565b9050919050565b600060208201905081810360008301526131d581612abe565b9050919050565b600060208201905081810360008301526131f581612b1b565b9050919050565b6000602082019050818103600083015261321581612b78565b9050919050565b6000602082019050818103600083015261323581612baf565b9050919050565b6000602082019050818103600083015261325581612be6565b9050919050565b6000602082019050818103600083015261327581612c43565b9050919050565b6000602082019050818103600083015261329581612c7a565b9050919050565b600060208201905081810360008301526132b581612cd7565b9050919050565b600060208201905081810360008301526132d581612d34565b9050919050565b600060208201905081810360008301526132f581612d91565b9050919050565b6000602082019050818103600083015261331581612dc8565b9050919050565b60006020820190506133316000830184612e25565b92915050565b6000604051905081810181811067ffffffffffffffff8211171561335a57600080fd5b8060405250919050565b600067ffffffffffffffff82111561337b57600080fd5b601f19601f8301169050602081019050919050565b600081519050919050565b600081519050919050565b60006133b1826133e4565b9050919050565b60008115159050919050565b6000819050919050565b60006003821015156133dc57fe5b819050919050565b600073ffffffffffffffffffffffffffffffffffffffff82169050919050565b6000819050919050565b6000613419826133e4565b9050919050565b60008115159050919050565b6000819050919050565b6000819050919050565b600063ffffffff82169050919050565b600061345b82613474565b9050919050565b600061346d826133ce565b9050919050565b600061347f82613486565b9050919050565b6000613491826133e4565b9050919050565b82818337600083830152505050565b60005b838110156134c55780820151818401526020810190506134aa565b838111156134d4576000848401525b50505050565b6000601f19601f830116905091905056fea265627a7a7230582061837279e06348041af966bce33502ac61be305bd53177cdef7424bd4db824cf6c6578706572696d656e74616cf50037",
  "source": "// SPDX-License-Identifier: MIT\npragma solidity >=0.4.21 <0.7.0;\npragma experimental ABIEncoderV2;\n\n// Define the smart contract\ncontract Federation {\n\n    // Define the possible states of a service\n    enum ServiceState {Open, Closed, Deployed}\n\n    // Define the Operator struct\n    struct Operator {\n        bytes32 name;\n        bool registered;\n    }\n\n    struct Endpoint {\n        bytes32 service_catalog_db;\n        bytes32 topology_db;\n        bytes32 nsd_id;\n        bytes32 ns_id; \n    }\n\n    // Define the Service struct\n    struct Service {\n        address creator;\n        bytes32 endpoint_consumer; \n        bytes32 id;\n        address provider;\n        bytes32 endpoint_provider; \n        bytes req_info;\n        ServiceState state;\n    }\n\n    // Define the Bid struct\n    struct Bid {\n        address bid_address;\n        uint price;\n        bytes32 endpoint_provider;\n    }\n    \n    // Define mappings to store data\n    mapping(bytes32 => uint) public bidCount;\n    mapping(bytes32 => Bid[]) public bids;\n    mapping(bytes32 => Service) public service;\n    mapping(address => Operator) public operator;\n    mapping(bytes32 => Endpoint) public endpoints;\n    \n    // Define events\n    event OperatorRegistered(address operator, bytes32 name);\n    event OperatorRemoved(address operator);\n    event ServiceAnnouncement(bytes requirements, bytes32 id);\n    event NewBid(bytes32 _id, uint256 max_bid_index);\n    event ServiceAnnouncementClosed(bytes32 _id);\n    event ServiceDeployedEvent(bytes32 _id);\n\n    function addOperator(bytes32 name) public {\n        Operator storage current_operator = operator[msg.sender];\n        require(name.length > 0, \"Name is not valid\");\n        require(current_operator.registered == false, \"Operator already registered\");\n        current_operator.name = name;\n        current_operator.registered = true;\n        emit OperatorRegistered(msg.sender, name);\n    }\n\n    function removeOperator() public {\n        Operator storage current_operator = operator[msg.sender];\n        require(current_operator.registered == true, \"Operator is not registered\");\n        delete operator[msg.sender];\n        emit OperatorRemoved(msg.sender);\n    }\n\n    function getOperatorInfo(address op_address) public view returns (bytes32 name) {\n        Operator storage current_operator = operator[op_address];\n        require(current_operator.registered == true, \"Operator is not registered with this address. Please register.\");\n        return current_operator.name;\n    }\n\n    function AnnounceService(bytes memory _requirements, bytes32 _id,\n                             bytes32 endpoint_service_catalog_db, bytes32 endpoint_topology_db,\n                             bytes32 endpoint_nsd_id, bytes32 endpoint_ns_id) public returns(ServiceState) {\n        Operator storage current_operator = operator[msg.sender];\n        Service storage current_service = service[_id];\n        require(current_operator.registered == true, \"Operator is not registered. Can not bid. Please register.\");\n        require(current_service.id != _id, \"Service ID for operator already exists\");\n        bytes32 endpoint_keccak = keccak256(abi.encodePacked(endpoint_service_catalog_db, endpoint_topology_db, endpoint_nsd_id, endpoint_ns_id));\n        endpoints[endpoint_keccak] = Endpoint(endpoint_service_catalog_db, endpoint_topology_db, endpoint_nsd_id, endpoint_ns_id);\n        service[_id] = Service(msg.sender, endpoint_keccak, _id, msg.sender, endpoint_keccak, _requirements, ServiceState.Open);\n        emit ServiceAnnouncement(_requirements, _id);\n        return ServiceState.Open;\n    }\n\n    function UpdateEndpoint(bool provider, bytes32 _id,\n                            bytes32 endpoint_service_catalog_db, bytes32 endpoint_topology_db,\n                            bytes32 endpoint_nsd_id, bytes32 endpoint_ns_id) public returns (bool) {\n        Operator storage current_operator = operator[msg.sender];\n        Service storage current_service = service[_id];\n        bytes32 endpoint_keccak = keccak256(abi.encodePacked(endpoint_service_catalog_db, endpoint_topology_db, endpoint_nsd_id, endpoint_ns_id));\n        require(current_operator.registered == true, \"Operator is not registered. Can not look into. Please register.\");\n        require(current_service.state >= ServiceState.Open, \"Service is closed or not exists\");\n        if(provider == true) {\n                require(current_service.state >= ServiceState.Closed, \"Service is still open or not exists\");\n                require(current_service.provider == msg.sender, \"This domain is not a winner\");\n                endpoints[endpoint_keccak] = Endpoint(endpoint_service_catalog_db, endpoint_topology_db, endpoint_nsd_id, endpoint_ns_id);\n                service[_id].endpoint_provider = endpoint_keccak;\n                return true;\n        }\n        else {\n                require(current_service.creator == msg.sender, \"This domain is not a creator\");\n                endpoints[endpoint_keccak] = Endpoint(endpoint_service_catalog_db, endpoint_topology_db, endpoint_nsd_id, endpoint_ns_id);\n                service[_id].endpoint_consumer = endpoint_keccak;\n                return true;\n        }\n    }\n        \n    function GetServiceState(bytes32 _id) public view returns (ServiceState) {\n        return service[_id].state;\n    }\n\n    function GetServiceInfo(bytes32 _id, bool provider, address call_address) public view returns (bytes32, bytes memory, bytes32, bytes32, bytes32, bytes32) {\n        Operator storage current_operator = operator[call_address];\n        Service storage current_service = service[_id];\n        require(current_operator.registered == true, \"Operator is not registered. Can not look into. Please register.\");\n        require(current_service.state >= ServiceState.Closed, \"Service is still open or not exists\");\n        if(provider == true) {\n            require(current_service.provider == call_address, \"This domain is not a winner\");\n            Endpoint storage current_endpoint = endpoints[current_service.endpoint_consumer];\n            return(current_service.id, current_service.req_info,\n                   current_endpoint.service_catalog_db, current_endpoint.topology_db,\n                   current_endpoint.nsd_id, current_endpoint.ns_id);\n        } else {\n            require(current_service.creator == call_address, \"This domain is not a creator\");\n            Endpoint storage current_endpoint = endpoints[current_service.endpoint_provider];\n            return(current_service.id, current_service.req_info,\n                   current_endpoint.service_catalog_db, current_endpoint.topology_db,\n                   current_endpoint.nsd_id, current_endpoint.ns_id);\n        }\n    }\n\n    function GetEndpoint(bytes32 endpoint_id, address call_address) public view returns (bytes32, bytes32, bytes32, bytes32) {\n        Operator storage current_operator = operator[call_address];\n        Endpoint storage current_endpoint = endpoints[endpoint_id];\n        require(current_operator.registered == true, \"Operator is not registered. Can not look into. Please register.\");\n        return(current_endpoint.service_catalog_db, current_endpoint.topology_db,\n               current_endpoint.nsd_id, current_endpoint.ns_id);\n    }\n\n    function PlaceBid(bytes32 _id, uint32 _price,\n                      bytes32 endpoint_service_catalog_db, bytes32 endpoint_topology_db,\n                      bytes32 endpoint_nsd_id, bytes32 endpoint_ns_id) public returns (uint256) {\n        Operator storage current_operator = operator[msg.sender];\n        Service storage current_service = service[_id];\n        require(current_operator.registered == true, \"Operator is not registered. Can not bid. Please register.\");\n        require(current_service.state == ServiceState.Open, \"Service is closed or not exists\");\n        bytes32 endpoint_keccak = keccak256(abi.encodePacked(endpoint_service_catalog_db, endpoint_topology_db, endpoint_nsd_id, endpoint_ns_id));\n        endpoints[endpoint_keccak] = Endpoint(endpoint_service_catalog_db, endpoint_topology_db, endpoint_nsd_id, endpoint_ns_id);\n        uint256 max_bid_index = bids[_id].push(Bid(msg.sender, _price, endpoint_keccak));\n        bidCount[_id] = max_bid_index;\n        emit NewBid(_id, max_bid_index);\n        return max_bid_index;\n    }\n\n    function GetBidCount(bytes32 _id, address _creator) public view returns (uint256) {\n        Service storage current_service = service[_id];\n        require(current_service.id == _id, \"Service not exists\");\n        require(current_service.creator == _creator, \"Only service creator can look into the information\");\n        return bidCount[_id];\n    }\n\n    function GetBid(bytes32 _id, uint256 bider_index, address _creator) public view returns (address, uint, uint256) {\n        Service storage current_service = service[_id];\n        Bid[] storage current_bid_pool = bids[_id];\n        require(current_service.id == _id, \"Service not exists\");\n        require(current_service.creator == _creator, \"Only service creator can look into the information\");\n        require(bids[_id].length > 0, \"No bids for requested Service\");\n        return (current_bid_pool[bider_index].bid_address, current_bid_pool[bider_index].price, bider_index);\n    }\n\n    function ChooseProvider(bytes32 _id, uint256 bider_index) public returns (bool) {\n        Service storage current_service = service[_id];\n        Bid[] storage current_bid_pool = bids[_id];\n        require(current_service.id == _id, \"Service not exists\");\n        require(current_service.creator == msg.sender, \"Only service creator can close the announcement\");\n        require(current_service.state == ServiceState.Open, \"Service announcement already closed\");\n\n        current_service.state = ServiceState.Closed;\n        service[_id].provider = current_bid_pool[bider_index].bid_address;\n        service[_id].endpoint_provider = current_bid_pool[bider_index].endpoint_provider;\n        emit ServiceAnnouncementClosed(_id);\n        return true;\n    }\n\n    function isWinner(bytes32 _id, address _winner) public view returns (bool) {\n        Service storage current_service = service[_id];\n        require(current_service.state == ServiceState.Closed, \"Service winner not choosen. Service: DEPLOYED or OPEN\");\n        if(current_service.provider == _winner) {\n            return true;\n        } else {\n            return false;\n        }\n    }\n\n    function ServiceDeployed(bytes memory info, bytes32 _id) public returns (bool) {\n        Service storage current_service = service[_id];\n        require(current_service.id == _id, \"Service not exists\");\n        require(current_service.provider == msg.sender, \"Only service provider can deploy the service\");\n        require(current_service.state == ServiceState.Closed, \"Service winner not choosen. Service: DEPLOYED or OPEN\");\n        current_service.state = ServiceState.Deployed;\n        current_service.req_info = info;\n        emit ServiceDeployedEvent(_id);\n        return true;\n    }\n}\n",
  "sourcePath": "/smart-contracts/contracts/Federation.sol",
  "compiler": {
    "name": "solc",
    "version": "0.5.0+commit.1d4f565a.Emscripten.clang"
  },
  "schemaVersion": "3.4.16",
  "updatedAt": "2025-04-12T08:58:48.900Z",
  "networkType": "ethereum",
  "devdoc": {
    "methods": {}
  },
  "userdoc": {
    "methods": {}
  }
}