{
  "contractName": "Federation",
  "abi": [
    {
      "constant": true,
      "inputs": [
        {
          "name": "",
          "type": "bytes32"
        }
      ],
      "name": "service",
      "outputs": [
        {
          "name": "creator",
          "type": "address"
        },
        {
          "name": "endpoint_consumer",
          "type": "bytes"
        },
        {
          "name": "id",
          "type": "bytes32"
        },
        {
          "name": "provider",
          "type": "address"
        },
        {
          "name": "endpoint_provider",
          "type": "bytes"
        },
        {
          "name": "req_info",
          "type": "bytes"
        },
        {
          "name": "state",
          "type": "uint8"
        }
      ],
      "payable": false,
      "stateMutability": "view",
      "type": "function"
    },
    {
      "constant": true,
      "inputs": [
        {
          "name": "",
          "type": "bytes32"
        }
      ],
      "name": "bidCount",
      "outputs": [
        {
          "name": "",
          "type": "uint256"
        }
      ],
      "payable": false,
      "stateMutability": "view",
      "type": "function"
    },
    {
      "constant": true,
      "inputs": [
        {
          "name": "",
          "type": "address"
        }
      ],
      "name": "operator",
      "outputs": [
        {
          "name": "name",
          "type": "bytes32"
        },
        {
          "name": "registered",
          "type": "bool"
        }
      ],
      "payable": false,
      "stateMutability": "view",
      "type": "function"
    },
    {
      "constant": true,
      "inputs": [
        {
          "name": "",
          "type": "bytes32"
        },
        {
          "name": "",
          "type": "uint256"
        }
      ],
      "name": "bids",
      "outputs": [
        {
          "name": "bid_address",
          "type": "address"
        },
        {
          "name": "price",
          "type": "uint256"
        },
        {
          "name": "endpoint_provider",
          "type": "bytes"
        }
      ],
      "payable": false,
      "stateMutability": "view",
      "type": "function"
    },
    {
      "anonymous": false,
      "inputs": [
        {
          "indexed": false,
          "name": "operator",
          "type": "address"
        },
        {
          "indexed": false,
          "name": "name",
          "type": "bytes32"
        }
      ],
      "name": "OperatorRegistered",
      "type": "event"
    },
    {
      "anonymous": false,
      "inputs": [
        {
          "indexed": false,
          "name": "operator",
          "type": "address"
        }
      ],
      "name": "OperatorRemoved",
      "type": "event"
    },
    {
      "anonymous": false,
      "inputs": [
        {
          "indexed": false,
          "name": "requirements",
          "type": "bytes"
        },
        {
          "indexed": false,
          "name": "id",
          "type": "bytes32"
        }
      ],
      "name": "ServiceAnnouncement",
      "type": "event"
    },
    {
      "anonymous": false,
      "inputs": [
        {
          "indexed": false,
          "name": "_id",
          "type": "bytes32"
        },
        {
          "indexed": false,
          "name": "max_bid_index",
          "type": "uint256"
        }
      ],
      "name": "NewBid",
      "type": "event"
    },
    {
      "anonymous": false,
      "inputs": [
        {
          "indexed": false,
          "name": "_id",
          "type": "bytes32"
        }
      ],
      "name": "ServiceAnnouncementClosed",
      "type": "event"
    },
    {
      "anonymous": false,
      "inputs": [
        {
          "indexed": false,
          "name": "_id",
          "type": "bytes32"
        }
      ],
      "name": "ServiceDeployedEvent",
      "type": "event"
    },
    {
      "constant": false,
      "inputs": [
        {
          "name": "name",
          "type": "bytes32"
        }
      ],
      "name": "addOperator",
      "outputs": [],
      "payable": false,
      "stateMutability": "nonpayable",
      "type": "function"
    },
    {
      "constant": false,
      "inputs": [],
      "name": "removeOperator",
      "outputs": [],
      "payable": false,
      "stateMutability": "nonpayable",
      "type": "function"
    },
    {
      "constant": true,
      "inputs": [
        {
          "name": "op_address",
          "type": "address"
        }
      ],
      "name": "getOperatorInfo",
      "outputs": [
        {
          "name": "name",
          "type": "bytes32"
        }
      ],
      "payable": false,
      "stateMutability": "view",
      "type": "function"
    },
    {
      "constant": false,
      "inputs": [
        {
          "name": "_requirements",
          "type": "bytes"
        },
        {
          "name": "_endpoint_consumer",
          "type": "bytes"
        },
        {
          "name": "_id",
          "type": "bytes32"
        }
      ],
      "name": "AnnounceService",
      "outputs": [
        {
          "name": "",
          "type": "uint8"
        }
      ],
      "payable": false,
      "stateMutability": "nonpayable",
      "type": "function"
    },
    {
      "constant": true,
      "inputs": [
        {
          "name": "_id",
          "type": "bytes32"
        }
      ],
      "name": "GetServiceState",
      "outputs": [
        {
          "name": "",
          "type": "uint8"
        }
      ],
      "payable": false,
      "stateMutability": "view",
      "type": "function"
    },
    {
      "constant": true,
      "inputs": [
        {
          "name": "_id",
          "type": "bytes32"
        },
        {
          "name": "provider",
          "type": "bool"
        },
        {
          "name": "call_address",
          "type": "address"
        }
      ],
      "name": "GetServiceInfo",
      "outputs": [
        {
          "name": "",
          "type": "bytes32"
        },
        {
          "name": "",
          "type": "bytes"
        },
        {
          "name": "",
          "type": "bytes"
        }
      ],
      "payable": false,
      "stateMutability": "view",
      "type": "function"
    },
    {
      "constant": false,
      "inputs": [
        {
          "name": "_id",
          "type": "bytes32"
        },
        {
          "name": "_price",
          "type": "uint32"
        },
        {
          "name": "_endpoint",
          "type": "bytes"
        }
      ],
      "name": "PlaceBid",
      "outputs": [
        {
          "name": "",
          "type": "uint256"
        }
      ],
      "payable": false,
      "stateMutability": "nonpayable",
      "type": "function"
    },
    {
      "constant": true,
      "inputs": [
        {
          "name": "_id",
          "type": "bytes32"
        },
        {
          "name": "_creator",
          "type": "address"
        }
      ],
      "name": "GetBidCount",
      "outputs": [
        {
          "name": "",
          "type": "uint256"
        }
      ],
      "payable": false,
      "stateMutability": "view",
      "type": "function"
    },
    {
      "constant": true,
      "inputs": [
        {
          "name": "_id",
          "type": "bytes32"
        },
        {
          "name": "bider_index",
          "type": "uint256"
        },
        {
          "name": "_creator",
          "type": "address"
        }
      ],
      "name": "GetBid",
      "outputs": [
        {
          "name": "",
          "type": "address"
        },
        {
          "name": "",
          "type": "uint256"
        },
        {
          "name": "",
          "type": "uint256"
        }
      ],
      "payable": false,
      "stateMutability": "view",
      "type": "function"
    },
    {
      "constant": false,
      "inputs": [
        {
          "name": "_id",
          "type": "bytes32"
        },
        {
          "name": "bider_index",
          "type": "uint256"
        }
      ],
      "name": "ChooseProvider",
      "outputs": [
        {
          "name": "endpoint_provider",
          "type": "bytes"
        }
      ],
      "payable": false,
      "stateMutability": "nonpayable",
      "type": "function"
    },
    {
      "constant": true,
      "inputs": [
        {
          "name": "_id",
          "type": "bytes32"
        },
        {
          "name": "_winner",
          "type": "address"
        }
      ],
      "name": "isWinner",
      "outputs": [
        {
          "name": "",
          "type": "bool"
        }
      ],
      "payable": false,
      "stateMutability": "view",
      "type": "function"
    },
    {
      "constant": false,
      "inputs": [
        {
          "name": "info",
          "type": "bytes"
        },
        {
          "name": "_id",
          "type": "bytes32"
        }
      ],
      "name": "ServiceDeployed",
      "outputs": [
        {
          "name": "",
          "type": "bool"
        }
      ],
      "payable": false,
      "stateMutability": "nonpayable",
      "type": "function"
    }
  ],
  "bytecode": "0x608060405234801561001057600080fd5b506130a5806100206000396000f3fe6080604052600436106100e6576000357c0100000000000000000000000000000000000000000000000000000000900463ffffffff16806302b34f1f146100eb57806320e54548146102f957806327d9ab5d146103105780633ae10dce1461037557806357c91f5f146104335780635fc9bd92146104a25780636efc1f5e146105555780636f78c7cd1461064b578063708e1c68146106865780638610372c146108115780639a307391146108605780639c382a56146108d05780639cc19f5b146109ba578063a255916b14610a2d578063ce646b1314610a8a578063f7e65b1c14610bdd575b600080fd5b3480156100f757600080fd5b506101246004803603602081101561010e57600080fd5b8101908080359060200190929190505050610cd5565b604051808873ffffffffffffffffffffffffffffffffffffffff1673ffffffffffffffffffffffffffffffffffffffff168152602001806020018781526020018673ffffffffffffffffffffffffffffffffffffffff1673ffffffffffffffffffffffffffffffffffffffff16815260200180602001806020018560028111156101aa57fe5b60ff16815260200184810384528a818151815260200191508051906020019080838360005b838110156101ea5780820151818401526020810190506101cf565b50505050905090810190601f1680156102175780820380516001836020036101000a031916815260200191505b50848103835287818151815260200191508051906020019080838360005b83811015610250578082015181840152602081019050610235565b50505050905090810190601f16801561027d5780820380516001836020036101000a031916815260200191505b50848103825286818151815260200191508051906020019080838360005b838110156102b657808201518184015260208101905061029b565b50505050905090810190601f1680156102e35780820380516001836020036101000a031916815260200191505b509a505050505050505050505060405180910390f35b34801561030557600080fd5b5061030e610f2c565b005b34801561031c57600080fd5b5061035f6004803603602081101561033357600080fd5b81019080803573ffffffffffffffffffffffffffffffffffffffff1690602001909291905050506110c0565b6040518082815260200191505060405180910390f35b34801561038157600080fd5b506103b86004803603604081101561039857600080fd5b8101908080359060200190929190803590602001909291905050506111c4565b6040518080602001828103825283818151815260200191508051906020019080838360005b838110156103f85780820151818401526020810190506103dd565b50505050905090810190601f1680156104255780820380516001836020036101000a031916815260200191505b509250505060405180910390f35b34801561043f57600080fd5b5061048c6004803603604081101561045657600080fd5b8101908080359060200190929190803573ffffffffffffffffffffffffffffffffffffffff169060200190929190505050611620565b6040518082815260200191505060405180910390f35b3480156104ae57600080fd5b50610505600480360360608110156104c557600080fd5b810190808035906020019092919080359060200190929190803573ffffffffffffffffffffffffffffffffffffffff1690602001909291905050506117bc565b604051808473ffffffffffffffffffffffffffffffffffffffff1673ffffffffffffffffffffffffffffffffffffffff168152602001838152602001828152602001935050505060405180910390f35b34801561056157600080fd5b506106356004803603606081101561057857600080fd5b8101908080359060200190929190803563ffffffff169060200190929190803590602001906401000000008111156105af57600080fd5b8201836020820111156105c157600080fd5b803590602001918460018302840111640100000000831117156105e357600080fd5b91908080601f016020809104026020016040519081016040528093929190818152602001838380828437600081840152601f19601f820116905080830192505050505050509192919290505050611a56565b6040518082815260200191505060405180910390f35b34801561065757600080fd5b506106846004803603602081101561066e57600080fd5b8101908080359060200190929190505050611d50565b005b34801561069257600080fd5b506107ed600480360360608110156106a957600080fd5b81019080803590602001906401000000008111156106c657600080fd5b8201836020820111156106d857600080fd5b803590602001918460018302840111640100000000831117156106fa57600080fd5b91908080601f016020809104026020016040519081016040528093929190818152602001838380828437600081840152601f19601f8201169050808301925050505050505091929192908035906020019064010000000081111561075d57600080fd5b82018360208201111561076f57600080fd5b8035906020019184600183028401116401000000008311171561079157600080fd5b91908080601f016020809104026020016040519081016040528093929190818152602001838380828437600081840152601f19601f82011690508083019250505050505050919291929080359060200190929190505050611f31565b604051808260028111156107fd57fe5b60ff16815260200191505060405180910390f35b34801561081d57600080fd5b5061084a6004803603602081101561083457600080fd5b810190808035906020019092919050505061232c565b6040518082815260200191505060405180910390f35b34801561086c57600080fd5b506108af6004803603602081101561088357600080fd5b81019080803573ffffffffffffffffffffffffffffffffffffffff169060200190929190505050612344565b60405180838152602001821515151581526020019250505060405180910390f35b3480156108dc57600080fd5b506109a0600480360360408110156108f357600080fd5b810190808035906020019064010000000081111561091057600080fd5b82018360208201111561092257600080fd5b8035906020019184600183028401116401000000008311171561094457600080fd5b91908080601f016020809104026020016040519081016040528093929190818152602001838380828437600081840152601f19601f82011690508083019250505050505050919291929080359060200190929190505050612375565b604051808215151515815260200191505060405180910390f35b3480156109c657600080fd5b50610a13600480360360408110156109dd57600080fd5b8101908080359060200190929190803573ffffffffffffffffffffffffffffffffffffffff16906020019092919050505061263b565b604051808215151515815260200191505060405180910390f35b348015610a3957600080fd5b50610a6660048036036020811015610a5057600080fd5b8101908080359060200190929190505050612786565b60405180826002811115610a7657fe5b60ff16815260200191505060405180910390f35b348015610a9657600080fd5b50610aef60048036036060811015610aad57600080fd5b8101908080359060200190929190803515159060200190929190803573ffffffffffffffffffffffffffffffffffffffff1690602001909291905050506127b3565b604051808481526020018060200180602001838103835285818151815260200191508051906020019080838360005b83811015610b39578082015181840152602081019050610b1e565b50505050905090810190601f168015610b665780820380516001836020036101000a031916815260200191505b50838103825284818151815260200191508051906020019080838360005b83811015610b9f578082015181840152602081019050610b84565b50505050905090810190601f168015610bcc5780820380516001836020036101000a031916815260200191505b509550505050505060405180910390f35b348015610be957600080fd5b50610c2060048036036040811015610c0057600080fd5b810190808035906020019092919080359060200190929190505050612dcf565b604051808473ffffffffffffffffffffffffffffffffffffffff1673ffffffffffffffffffffffffffffffffffffffff16815260200183815260200180602001828103825283818151815260200191508051906020019080838360005b83811015610c98578082015181840152602081019050610c7d565b50505050905090810190601f168015610cc55780820380516001836020036101000a031916815260200191505b5094505050505060405180910390f35b60026020528060005260406000206000915090508060000160009054906101000a900473ffffffffffffffffffffffffffffffffffffffff1690806001018054600181600116156101000203166002900480601f016020809104026020016040519081016040528092919081815260200182805460018160011615610100020316600290048015610da75780601f10610d7c57610100808354040283529160200191610da7565b820191906000526020600020905b815481529060010190602001808311610d8a57829003601f168201915b5050505050908060020154908060030160009054906101000a900473ffffffffffffffffffffffffffffffffffffffff1690806004018054600181600116156101000203166002900480601f016020809104026020016040519081016040528092919081815260200182805460018160011615610100020316600290048015610e715780601f10610e4657610100808354040283529160200191610e71565b820191906000526020600020905b815481529060010190602001808311610e5457829003601f168201915b505050505090806005018054600181600116156101000203166002900480601f016020809104026020016040519081016040528092919081815260200182805460018160011615610100020316600290048015610f0f5780601f10610ee457610100808354040283529160200191610f0f565b820191906000526020600020905b815481529060010190602001808311610ef257829003601f168201915b5050505050908060060160009054906101000a900460ff16905087565b6000600360003373ffffffffffffffffffffffffffffffffffffffff1673ffffffffffffffffffffffffffffffffffffffff1681526020019081526020016000209050600115158160010160009054906101000a900460ff161515141515610ffc576040517f08c379a000000000000000000000000000000000000000000000000000000000815260040180806020018281038252601a8152602001807f4f70657261746f72206973206e6f74207265676973746572656400000000000081525060200191505060405180910390fd5b600360003373ffffffffffffffffffffffffffffffffffffffff1673ffffffffffffffffffffffffffffffffffffffff1681526020019081526020016000206000808201600090556001820160006101000a81549060ff021916905550507f80c0b871b97b595b16a7741c1b06fed0c6f6f558639f18ccbce50724325dc40d33604051808273ffffffffffffffffffffffffffffffffffffffff1673ffffffffffffffffffffffffffffffffffffffff16815260200191505060405180910390a150565b600080600360008473ffffffffffffffffffffffffffffffffffffffff1673ffffffffffffffffffffffffffffffffffffffff1681526020019081526020016000209050600115158160010160009054906101000a900460ff1615151415156111b7576040517f08c379a000000000000000000000000000000000000000000000000000000000815260040180806020018281038252603e8152602001807f4f70657261746f72206973206e6f74207265676973746572656420776974682081526020017f7468697320616464726573732e20506c656173652072656769737465722e000081525060400191505060405180910390fd5b8060000154915050919050565b60606000600260008581526020019081526020016000209050600060016000868152602001908152602001600020905084826002015414151561126f576040517f08c379a00000000000000000000000000000000000000000000000000000000081526004018080602001828103825260128152602001807f53657276696365206e6f7420657869737473000000000000000000000000000081525060200191505060405180910390fd5b3373ffffffffffffffffffffffffffffffffffffffff168260000160009054906101000a900473ffffffffffffffffffffffffffffffffffffffff1673ffffffffffffffffffffffffffffffffffffffff1614151561135c576040517f08c379a000000000000000000000000000000000000000000000000000000000815260040180806020018281038252602f8152602001807f4f6e6c7920736572766963652063726561746f722063616e20636c6f7365207481526020017f686520616e6e6f756e63656d656e74000000000000000000000000000000000081525060400191505060405180910390fd5b6000600281111561136957fe5b8260060160009054906101000a900460ff16600281111561138657fe5b141515611421576040517f08c379a00000000000000000000000000000000000000000000000000000000081526004018080602001828103825260238152602001807f5365727669636520616e6e6f756e63656d656e7420616c726561647920636c6f81526020017f736564000000000000000000000000000000000000000000000000000000000081525060400191505060405180910390fd5b60018260060160006101000a81548160ff0219169083600281111561144257fe5b0217905550808481548110151561145557fe5b906000526020600020906003020160000160009054906101000a900473ffffffffffffffffffffffffffffffffffffffff166002600087815260200190815260200160002060030160006101000a81548173ffffffffffffffffffffffffffffffffffffffff021916908373ffffffffffffffffffffffffffffffffffffffff16021790555080848154811015156114e957fe5b906000526020600020906003020160020160026000878152602001908152602001600020600401908054600181600116156101000203166002900461152f929190612ecd565b507f0fa967e5a697cd5b1a32e3ed8e2a5b983caf2ae1bb54e8fe37fae071347e8fea856040518082815260200191505060405180910390a1600260008681526020019081526020016000206004018054600181600116156101000203166002900480601f0160208091040260200160405190810160405280929190818152602001828054600181600116156101000203166002900480156116115780601f106115e657610100808354040283529160200191611611565b820191906000526020600020905b8154815290600101906020018083116115f457829003601f168201915b50505050509250505092915050565b6000806002600085815260200190815260200160002090508381600201541415156116b3576040517f08c379a00000000000000000000000000000000000000000000000000000000081526004018080602001828103825260128152602001807f53657276696365206e6f7420657869737473000000000000000000000000000081525060200191505060405180910390fd5b8273ffffffffffffffffffffffffffffffffffffffff168160000160009054906101000a900473ffffffffffffffffffffffffffffffffffffffff1673ffffffffffffffffffffffffffffffffffffffff161415156117a0576040517f08c379a00000000000000000000000000000000000000000000000000000000081526004018080602001828103825260328152602001807f4f6e6c7920736572766963652063726561746f722063616e206c6f6f6b20696e81526020017f746f2074686520696e666f726d6174696f6e000000000000000000000000000081525060400191505060405180910390fd5b6000808581526020019081526020016000205491505092915050565b6000806000806002600088815260200190815260200160002090506000600160008981526020019081526020016000209050878260020154141515611869576040517f08c379a00000000000000000000000000000000000000000000000000000000081526004018080602001828103825260128152602001807f53657276696365206e6f7420657869737473000000000000000000000000000081525060200191505060405180910390fd5b8573ffffffffffffffffffffffffffffffffffffffff168260000160009054906101000a900473ffffffffffffffffffffffffffffffffffffffff1673ffffffffffffffffffffffffffffffffffffffff16141515611956576040517f08c379a00000000000000000000000000000000000000000000000000000000081526004018080602001828103825260328152602001807f4f6e6c7920736572766963652063726561746f722063616e206c6f6f6b20696e81526020017f746f2074686520696e666f726d6174696f6e000000000000000000000000000081525060400191505060405180910390fd5b6000600160008a8152602001908152602001600020805490501115156119e4576040517f08c379a000000000000000000000000000000000000000000000000000000000815260040180806020018281038252601d8152602001807f4e6f206269647320666f7220726571756573746564205365727669636500000081525060200191505060405180910390fd5b80878154811015156119f257fe5b906000526020600020906003020160000160009054906101000a900473ffffffffffffffffffffffffffffffffffffffff168188815481101515611a3257fe5b90600052602060002090600302016001015488945094509450505093509350939050565b600080600360003373ffffffffffffffffffffffffffffffffffffffff1673ffffffffffffffffffffffffffffffffffffffff16815260200190815260200160002090506000600260008781526020019081526020016000209050600115158260010160009054906101000a900460ff161515141515611b64576040517f08c379a00000000000000000000000000000000000000000000000000000000081526004018080602001828103825260398152602001807f4f70657261746f72206973206e6f7420726567697374657265642e2043616e2081526020017f6e6f74206269642e20506c656173652072656769737465722e0000000000000081525060400191505060405180910390fd5b60006002811115611b7157fe5b8160060160009054906101000a900460ff166002811115611b8e57fe5b141515611c03576040517f08c379a000000000000000000000000000000000000000000000000000000000815260040180806020018281038252601f8152602001807f5365727669636520697320636c6f736564206f72206e6f74206578697374730081525060200191505060405180910390fd5b6000600160008881526020019081526020016000206060604051908101604052803373ffffffffffffffffffffffffffffffffffffffff1681526020018863ffffffff168152602001878152509080600181540180825580915050906001820390600052602060002090600302016000909192909190915060008201518160000160006101000a81548173ffffffffffffffffffffffffffffffffffffffff021916908373ffffffffffffffffffffffffffffffffffffffff160217905550602082015181600101556040820151816002019080519060200190611ce8929190612f54565b505050905080600080898152602001908152602001600020819055507fdb578ec7204282ed3ffcec84ef9d2ca9adda7fb0c0b707010bad5cce9f18f41f8782604051808381526020018281526020019250505060405180910390a18093505050509392505050565b6000600360003373ffffffffffffffffffffffffffffffffffffffff1673ffffffffffffffffffffffffffffffffffffffff16815260200190815260200160002090506000602060ff16111515611e0f576040517f08c379a00000000000000000000000000000000000000000000000000000000081526004018080602001828103825260118152602001807f4e616d65206973206e6f742076616c696400000000000000000000000000000081525060200191505060405180910390fd5b600015158160010160009054906101000a900460ff161515141515611e9c576040517f08c379a000000000000000000000000000000000000000000000000000000000815260040180806020018281038252601b8152602001807f4f70657261746f7220616c72656164792072656769737465726564000000000081525060200191505060405180910390fd5b81816000018190555060018160010160006101000a81548160ff0219169083151502179055507fe8e68cef1c3a761ed7be7e8463a375f27f7bc335e51824223cacce636ec5c3fe3383604051808373ffffffffffffffffffffffffffffffffffffffff1673ffffffffffffffffffffffffffffffffffffffff1681526020018281526020019250505060405180910390a15050565b600080600360003373ffffffffffffffffffffffffffffffffffffffff1673ffffffffffffffffffffffffffffffffffffffff16815260200190815260200160002090506000600260008581526020019081526020016000209050600115158260010160009054906101000a900460ff16151514151561203f576040517f08c379a00000000000000000000000000000000000000000000000000000000081526004018080602001828103825260398152602001807f4f70657261746f72206973206e6f7420726567697374657265642e2043616e2081526020017f6e6f74206269642e20506c656173652072656769737465722e0000000000000081525060400191505060405180910390fd5b838160020154141515156120e1576040517f08c379a00000000000000000000000000000000000000000000000000000000081526004018080602001828103825260268152602001807f5365727669636520494420666f72206f70657261746f7220616c72656164792081526020017f657869737473000000000000000000000000000000000000000000000000000081525060400191505060405180910390fd5b60e0604051908101604052803373ffffffffffffffffffffffffffffffffffffffff1681526020018681526020018581526020013373ffffffffffffffffffffffffffffffffffffffff1681526020018681526020018781526020016000600281111561214a57fe5b8152506002600086815260200190815260200160002060008201518160000160006101000a81548173ffffffffffffffffffffffffffffffffffffffff021916908373ffffffffffffffffffffffffffffffffffffffff16021790555060208201518160010190805190602001906121c3929190612f54565b506040820151816002015560608201518160030160006101000a81548173ffffffffffffffffffffffffffffffffffffffff021916908373ffffffffffffffffffffffffffffffffffffffff1602179055506080820151816004019080519060200190612231929190612f54565b5060a082015181600501908051906020019061224e929190612f54565b5060c08201518160060160006101000a81548160ff0219169083600281111561227357fe5b02179055509050507fb7695f814983e3ba2a7424e9ff82b3cb1d03499243a8042cd59d0d650edf22e586856040518080602001838152602001828103825284818151815260200191508051906020019080838360005b838110156122e45780820151818401526020810190506122c9565b50505050905090810190601f1680156123115780820380516001836020036101000a031916815260200191505b50935050505060405180910390a16000925050509392505050565b60006020528060005260406000206000915090505481565b60036020528060005260406000206000915090508060000154908060010160009054906101000a900460ff16905082565b600080600260008481526020019081526020016000209050828160020154141515612408576040517f08c379a00000000000000000000000000000000000000000000000000000000081526004018080602001828103825260128152602001807f53657276696365206e6f7420657869737473000000000000000000000000000081525060200191505060405180910390fd5b3373ffffffffffffffffffffffffffffffffffffffff168160030160009054906101000a900473ffffffffffffffffffffffffffffffffffffffff1673ffffffffffffffffffffffffffffffffffffffff161415156124f5576040517f08c379a000000000000000000000000000000000000000000000000000000000815260040180806020018281038252602c8152602001807f4f6e6c7920736572766963652070726f76696465722063616e206465706c6f7981526020017f207468652073657276696365000000000000000000000000000000000000000081525060400191505060405180910390fd5b6001600281111561250257fe5b8160060160009054906101000a900460ff16600281111561251f57fe5b1415156125ba576040517f08c379a00000000000000000000000000000000000000000000000000000000081526004018080602001828103825260358152602001807f536572766963652077696e6e6572206e6f742063686f6f73656e2e205365727681526020017f6963653a204445504c4f594544206f72204f50454e000000000000000000000081525060400191505060405180910390fd5b60028160060160006101000a81548160ff021916908360028111156125db57fe5b0217905550838160050190805190602001906125f8929190612fd4565b507f5cfc0037f79529279d288edea103e1e1d3f2a2b727bdf8113017043ea939488b836040518082815260200191505060405180910390a1600191505092915050565b6000806002600085815260200190815260200160002090506001600281111561266057fe5b8160060160009054906101000a900460ff16600281111561267d57fe5b141515612718576040517f08c379a00000000000000000000000000000000000000000000000000000000081526004018080602001828103825260358152602001807f536572766963652077696e6e6572206e6f742063686f6f73656e2e205365727681526020017f6963653a204445504c4f594544206f72204f50454e000000000000000000000081525060400191505060405180910390fd5b8273ffffffffffffffffffffffffffffffffffffffff168160030160009054906101000a900473ffffffffffffffffffffffffffffffffffffffff1673ffffffffffffffffffffffffffffffffffffffff16141561277a576001915050612780565b60009150505b92915050565b60006002600083815260200190815260200160002060060160009054906101000a900460ff169050919050565b60006060806000600360008673ffffffffffffffffffffffffffffffffffffffff1673ffffffffffffffffffffffffffffffffffffffff16815260200190815260200160002090506000600260008981526020019081526020016000209050600115158260010160009054906101000a900460ff1615151415156128c5576040517f08c379a000000000000000000000000000000000000000000000000000000000815260040180806020018281038252603f8152602001807f4f70657261746f72206973206e6f7420726567697374657265642e2043616e2081526020017f6e6f74206c6f6f6b20696e746f2e20506c656173652072656769737465722e0081525060400191505060405180910390fd5b600160028111156128d257fe5b8160060160009054906101000a900460ff1660028111156128ef57fe5b1015151561298b576040517f08c379a00000000000000000000000000000000000000000000000000000000081526004018080602001828103825260238152602001807f53657276696365206973207374696c6c206f70656e206f72206e6f742065786981526020017f737473000000000000000000000000000000000000000000000000000000000081525060400191505060405180910390fd5b600115158715151415612bb1578573ffffffffffffffffffffffffffffffffffffffff168160030160009054906101000a900473ffffffffffffffffffffffffffffffffffffffff1673ffffffffffffffffffffffffffffffffffffffff16141515612a5f576040517f08c379a000000000000000000000000000000000000000000000000000000000815260040180806020018281038252601b8152602001807f5468697320646f6d61696e206973206e6f7420612077696e6e6572000000000081525060200191505060405180910390fd5b80600201548160010182600501818054600181600116156101000203166002900480601f016020809104026020016040519081016040528092919081815260200182805460018160011615610100020316600290048015612b015780601f10612ad657610100808354040283529160200191612b01565b820191906000526020600020905b815481529060010190602001808311612ae457829003601f168201915b50505050509150808054600181600116156101000203166002900480601f016020809104026020016040519081016040528092919081815260200182805460018160011615610100020316600290048015612b9d5780601f10612b7257610100808354040283529160200191612b9d565b820191906000526020600020905b815481529060010190602001808311612b8057829003601f168201915b505050505090509450945094505050612dc6565b8573ffffffffffffffffffffffffffffffffffffffff168160000160009054906101000a900473ffffffffffffffffffffffffffffffffffffffff1673ffffffffffffffffffffffffffffffffffffffff16141515612c78576040517f08c379a000000000000000000000000000000000000000000000000000000000815260040180806020018281038252601c8152602001807f5468697320646f6d61696e206973206e6f7420612063726561746f720000000081525060200191505060405180910390fd5b80600201548160040182600501818054600181600116156101000203166002900480601f016020809104026020016040519081016040528092919081815260200182805460018160011615610100020316600290048015612d1a5780601f10612cef57610100808354040283529160200191612d1a565b820191906000526020600020905b815481529060010190602001808311612cfd57829003601f168201915b50505050509150808054600181600116156101000203166002900480601f016020809104026020016040519081016040528092919081815260200182805460018160011615610100020316600290048015612db65780601f10612d8b57610100808354040283529160200191612db6565b820191906000526020600020905b815481529060010190602001808311612d9957829003601f168201915b5050505050905094509450945050505b93509350939050565b600160205281600052604060002081815481101515612dea57fe5b9060005260206000209060030201600091509150508060000160009054906101000a900473ffffffffffffffffffffffffffffffffffffffff1690806001015490806002018054600181600116156101000203166002900480601f016020809104026020016040519081016040528092919081815260200182805460018160011615610100020316600290048015612ec35780601f10612e9857610100808354040283529160200191612ec3565b820191906000526020600020905b815481529060010190602001808311612ea657829003601f168201915b5050505050905083565b828054600181600116156101000203166002900490600052602060002090601f016020900481019282601f10612f065780548555612f43565b82800160010185558215612f4357600052602060002091601f016020900482015b82811115612f42578254825591600101919060010190612f27565b5b509050612f509190613054565b5090565b828054600181600116156101000203166002900490600052602060002090601f016020900481019282601f10612f9557805160ff1916838001178555612fc3565b82800160010185558215612fc3579182015b82811115612fc2578251825591602001919060010190612fa7565b5b509050612fd09190613054565b5090565b828054600181600116156101000203166002900490600052602060002090601f016020900481019282601f1061301557805160ff1916838001178555613043565b82800160010185558215613043579182015b82811115613042578251825591602001919060010190613027565b5b5090506130509190613054565b5090565b61307691905b8082111561307257600081600090555060010161305a565b5090565b9056fea165627a7a723058209f583218c150004a36343ece95a98deaec9c7ce0b8b4f4ec85bde29c829d9d420029",
  "source": "// SPDX-License-Identifier: MIT\npragma solidity >=0.4.21 <0.7.0;\n\n// Define the smart contract\ncontract Federation {\n\n    // Define the possible states of a service\n    enum ServiceState {Open, Closed, Deployed}\n\n    // Define the Operator struct\n    struct Operator {\n        bytes32 name;\n        bool registered;\n    }\n\n    // Define the Service struct\n    struct Service {\n        address creator;\n        bytes endpoint_consumer; \n        bytes32 id;\n        address provider;\n        bytes endpoint_provider; \n        bytes req_info;\n        ServiceState state;\n    }\n\n    // Define the Bid struct\n    struct Bid {\n        address bid_address;\n        uint price;\n        bytes endpoint_provider;\n    }\n    \n    // Define mappings to store data\n    mapping(bytes32 => uint) public bidCount;\n    mapping(bytes32 => Bid[]) public bids;\n    mapping(bytes32 => Service) public service;\n    mapping(address => Operator) public operator;\n    \n    // Define events\n    event OperatorRegistered(address operator, bytes32 name);\n    event OperatorRemoved(address operator);\n    event ServiceAnnouncement(bytes requirements, bytes32 id);\n    event NewBid(bytes32 _id, uint256 max_bid_index);\n    event ServiceAnnouncementClosed(bytes32 _id);\n    event ServiceDeployedEvent(bytes32 _id);\n\n    function addOperator(bytes32 name) public {\n        Operator storage current_operator = operator[msg.sender];\n        require(name.length > 0, \"Name is not valid\");\n        require(current_operator.registered == false, \"Operator already registered\");\n        current_operator.name = name;\n        current_operator.registered = true;\n        emit OperatorRegistered(msg.sender, name);\n    }\n\n    function removeOperator() public {\n        Operator storage current_operator = operator[msg.sender];\n        require(current_operator.registered == true, \"Operator is not registered\");\n        delete operator[msg.sender];\n        emit OperatorRemoved(msg.sender);\n    }\n\n    function getOperatorInfo(address op_address) public view returns (bytes32 name) {\n        Operator storage current_operator = operator[op_address];\n        require(current_operator.registered == true, \"Operator is not registered with this address. Please register.\");\n        return current_operator.name;\n    }\n\n    function AnnounceService(bytes memory _requirements, bytes memory _endpoint_consumer, bytes32 _id) public returns(ServiceState) {\n        Operator storage current_operator = operator[msg.sender];\n        Service storage current_service = service[_id];\n        require(current_operator.registered == true, \"Operator is not registered. Can not bid. Please register.\");\n        require(current_service.id != _id, \"Service ID for operator already exists\");\n\n        service[_id] = Service(msg.sender, _endpoint_consumer, _id, msg.sender, _endpoint_consumer, _requirements, ServiceState.Open);\n        emit ServiceAnnouncement(_requirements, _id);\n        return ServiceState.Open;\n    }\n\n    function GetServiceState(bytes32 _id) public view returns (ServiceState) {\n        return service[_id].state;\n    }\n\n    function GetServiceInfo(bytes32 _id, bool provider, address call_address) public view returns (bytes32, bytes memory, bytes memory) {\n        Operator storage current_operator = operator[call_address];\n        Service storage current_service = service[_id];\n        require(current_operator.registered == true, \"Operator is not registered. Can not look into. Please register.\");\n        require(current_service.state >= ServiceState.Closed, \"Service is still open or not exists\");\n        if(provider == true) {\n            require(current_service.provider == call_address, \"This domain is not a winner\");\n            return(current_service.id, current_service.endpoint_consumer, current_service.req_info);\n        } else {\n            require(current_service.creator == call_address, \"This domain is not a creator\");\n            return(current_service.id, current_service.endpoint_provider, current_service.req_info);\n        }\n    }\n\n    function PlaceBid(bytes32 _id, uint32 _price, bytes memory _endpoint) public returns (uint256) {\n        Operator storage current_operator = operator[msg.sender];\n        Service storage current_service = service[_id];\n        require(current_operator.registered == true, \"Operator is not registered. Can not bid. Please register.\");\n        require(current_service.state == ServiceState.Open, \"Service is closed or not exists\");\n        uint256 max_bid_index = bids[_id].push(Bid(msg.sender, _price, _endpoint));\n        bidCount[_id] = max_bid_index;\n        emit NewBid(_id, max_bid_index);\n        return max_bid_index;\n    }\n\n    function GetBidCount(bytes32 _id, address _creator) public view returns (uint256) {\n        Service storage current_service = service[_id];\n        require(current_service.id == _id, \"Service not exists\");\n        require(current_service.creator == _creator, \"Only service creator can look into the information\");\n        return bidCount[_id];\n    }\n\n    function GetBid(bytes32 _id, uint256 bider_index, address _creator) public view returns (address, uint, uint256) {\n        Service storage current_service = service[_id];\n        Bid[] storage current_bid_pool = bids[_id];\n        require(current_service.id == _id, \"Service not exists\");\n        require(current_service.creator == _creator, \"Only service creator can look into the information\");\n        require(bids[_id].length > 0, \"No bids for requested Service\");\n        return (current_bid_pool[bider_index].bid_address, current_bid_pool[bider_index].price, bider_index);\n    }\n\n    function ChooseProvider(bytes32 _id, uint256 bider_index) public returns (bytes memory endpoint_provider) {\n        Service storage current_service = service[_id];\n        Bid[] storage current_bid_pool = bids[_id];\n        require(current_service.id == _id, \"Service not exists\");\n        require(current_service.creator == msg.sender, \"Only service creator can close the announcement\");\n        require(current_service.state == ServiceState.Open, \"Service announcement already closed\");\n\n        current_service.state = ServiceState.Closed;\n        service[_id].provider = current_bid_pool[bider_index].bid_address;\n        service[_id].endpoint_provider = current_bid_pool[bider_index].endpoint_provider;\n        emit ServiceAnnouncementClosed(_id);\n        return service[_id].endpoint_provider;\n    }\n\n    function isWinner(bytes32 _id, address _winner) public view returns (bool) {\n        Service storage current_service = service[_id];\n        require(current_service.state == ServiceState.Closed, \"Service winner not choosen. Service: DEPLOYED or OPEN\");\n        if(current_service.provider == _winner) {\n            return true;\n        } else {\n            return false;\n        }\n    }\n\n    function ServiceDeployed(bytes memory info, bytes32 _id) public returns (bool) {\n        Service storage current_service = service[_id];\n        require(current_service.id == _id, \"Service not exists\");\n        require(current_service.provider == msg.sender, \"Only service provider can deploy the service\");\n        require(current_service.state == ServiceState.Closed, \"Service winner not choosen. Service: DEPLOYED or OPEN\");\n        current_service.state = ServiceState.Deployed;\n        current_service.req_info = info;\n        emit ServiceDeployedEvent(_id);\n        return true;\n    }\n}\n",
  "sourcePath": "/smart-contracts/contracts/Federation.sol",
  "compiler": {
    "name": "solc",
    "version": "0.5.0+commit.1d4f565a.Emscripten.clang"
  },
  "schemaVersion": "3.4.16",
  "updatedAt": "2025-02-12T18:23:28.064Z",
  "networkType": "ethereum",
  "devdoc": {
    "methods": {}
  },
  "userdoc": {
    "methods": {}
  }
}